{
  "_format": "hh-sol-artifact-1",
  "contractName": "WavePortal",
  "sourceName": "contracts/WavePortal.sol",
  "abi": [
    {
      "inputs": [],
      "stateMutability": "nonpayable",
      "type": "constructor"
    },
    {
      "anonymous": false,
      "inputs": [
        {
          "indexed": true,
          "internalType": "address",
          "name": "from",
          "type": "address"
        },
        {
          "indexed": false,
          "internalType": "uint256",
          "name": "timestamp",
          "type": "uint256"
        },
        {
          "indexed": false,
          "internalType": "string",
          "name": "message",
          "type": "string"
        }
      ],
      "name": "NewWave",
      "type": "event"
    },
    {
      "inputs": [],
      "name": "getAllWaves",
      "outputs": [
        {
          "components": [
            {
              "internalType": "address",
              "name": "waver",
              "type": "address"
            },
            {
              "internalType": "string",
              "name": "message",
              "type": "string"
            },
            {
              "internalType": "uint256",
              "name": "timestamp",
              "type": "uint256"
            }
          ],
          "internalType": "struct WavePortal.Wave[]",
          "name": "",
          "type": "tuple[]"
        }
      ],
      "stateMutability": "view",
      "type": "function"
    },
    {
      "inputs": [],
      "name": "getTotalWaves",
      "outputs": [
        {
          "internalType": "uint256",
          "name": "",
          "type": "uint256"
        }
      ],
      "stateMutability": "view",
      "type": "function"
    },
    {
      "inputs": [],
      "name": "owner",
      "outputs": [
        {
          "internalType": "address payable",
          "name": "",
          "type": "address"
        }
      ],
      "stateMutability": "view",
      "type": "function"
    },
    {
      "inputs": [
        {
          "internalType": "string",
          "name": "_message",
          "type": "string"
        }
      ],
      "name": "wave",
      "outputs": [],
      "stateMutability": "payable",
      "type": "function"
    },
    {
      "inputs": [
        {
          "internalType": "address",
          "name": "",
          "type": "address"
        }
      ],
      "name": "waveCount",
      "outputs": [
        {
          "internalType": "uint64",
          "name": "",
          "type": "uint64"
        }
      ],
      "stateMutability": "view",
      "type": "function"
    },
    {
      "inputs": [],
      "name": "withdraw",
      "outputs": [],
      "stateMutability": "nonpayable",
      "type": "function"
    }
  ],
  "bytecode": "0x60806040523480156200001157600080fd5b506200005d6040518060400160405280600181526020017f0a00000000000000000000000000000000000000000000000000000000000000815250620000ee60201b620009bb1760201c565b620000a86040518060400160405280601581526020017f436f6e747261637420496e697469616c697a65642e0000000000000000000000815250620000ee60201b620009bb1760201c565b336000806101000a81548173ffffffffffffffffffffffffffffffffffffffff021916908373ffffffffffffffffffffffffffffffffffffffff16021790555062000282565b6200018e81604051602401620001059190620001fb565b6040516020818303038152906040527f41304fac000000000000000000000000000000000000000000000000000000007bffffffffffffffffffffffffffffffffffffffffffffffffffffffff19166020820180517bffffffffffffffffffffffffffffffffffffffffffffffffffffffff83818316178352505050506200019160201b60201c565b50565b60008151905060006a636f6e736f6c652e6c6f679050602083016000808483855afa5050505050565b6000620001c7826200021f565b620001d381856200022a565b9350620001e58185602086016200023b565b620001f08162000271565b840191505092915050565b60006020820190508181036000830152620002178184620001ba565b905092915050565b600081519050919050565b600082825260208201905092915050565b60005b838110156200025b5780820151818401526020810190506200023e565b838111156200026b576000848401525b50505050565b6000601f19601f8301169050919050565b61157d80620002926000396000f3fe6080604052600436106100555760003560e01c80633ccfd60b1461005a578063449d46c0146100715780638da5cb5b1461008d5780639a2cdc08146100b8578063ae020f4f146100e3578063bd43a90814610120575b600080fd5b34801561006657600080fd5b5061006f61014b565b005b61008b60048036038101906100869190610da3565b610221565b005b34801561009957600080fd5b506100a26107ee565b6040516100af919061105e565b60405180910390f35b3480156100c457600080fd5b506100cd610812565b6040516100da91906111be565b60405180910390f35b3480156100ef57600080fd5b5061010a60048036038101906101059190610d7a565b610843565b6040516101179190611209565b60405180910390f35b34801561012c57600080fd5b5061013561086a565b6040516101429190611079565b60405180910390f35b600047905060008060009054906101000a900473ffffffffffffffffffffffffffffffffffffffff1673ffffffffffffffffffffffffffffffffffffffff168260405161019790611049565b60006040518083038185875af1925050503d80600081146101d4576040519150601f19603f3d011682016040523d82523d6000602084013e6101d9565b606091505b505090508061021d576040517f08c379a00000000000000000000000000000000000000000000000000000000081526004016102149061117e565b60405180910390fd5b5050565b670de0b6b3a764000034101561026c576040517f08c379a00000000000000000000000000000000000000000000000000000000081526004016102639061119e565b60405180910390fd5b600180600082825461027e91906112f6565b925050819055506000600260003373ffffffffffffffffffffffffffffffffffffffff1673ffffffffffffffffffffffffffffffffffffffff16815260200190815260200160002060009054906101000a900467ffffffffffffffff1667ffffffffffffffff16141561045f576001600360008282546102fe91906112f6565b925050819055506001600260003373ffffffffffffffffffffffffffffffffffffffff1673ffffffffffffffffffffffffffffffffffffffff16815260200190815260200160002060008282829054906101000a900467ffffffffffffffff16610368919061134c565b92506101000a81548167ffffffffffffffff021916908367ffffffffffffffff160217905550600460405180606001604052803373ffffffffffffffffffffffffffffffffffffffff16815260200183815260200142815250908060018154018082558091505060019003906000526020600020906003020160009091909190915060008201518160000160006101000a81548173ffffffffffffffffffffffffffffffffffffffff021916908373ffffffffffffffffffffffffffffffffffffffff160217905550602082015181600101908051906020019061044d929190610c5a565b506040820151816002015550506105b5565b6001600260003373ffffffffffffffffffffffffffffffffffffffff1673ffffffffffffffffffffffffffffffffffffffff16815260200190815260200160002060008282829054906101000a900467ffffffffffffffff166104c2919061134c565b92506101000a81548167ffffffffffffffff021916908367ffffffffffffffff160217905550600460405180606001604052803373ffffffffffffffffffffffffffffffffffffffff16815260200183815260200142815250908060018154018082558091505060019003906000526020600020906003020160009091909190915060008201518160000160006101000a81548173ffffffffffffffffffffffffffffffffffffffff021916908373ffffffffffffffffffffffffffffffffffffffff16021790555060208201518160010190805190602001906105a7929190610c5a565b506040820151816002015550505b6105f56040518060400160405280601181526020017f2573206a757374207761766564212025730000000000000000000000000000008152503383610a54565b6001600260003373ffffffffffffffffffffffffffffffffffffffff1673ffffffffffffffffffffffffffffffffffffffff16815260200190815260200160002060009054906101000a900467ffffffffffffffff1667ffffffffffffffff1614156106fd576106f86040518060400160405280601f81526020017f257320686173207761766564206120746f74616c206f662025642074696d650081525033600260003373ffffffffffffffffffffffffffffffffffffffff1673ffffffffffffffffffffffffffffffffffffffff16815260200190815260200160002060009054906101000a900467ffffffffffffffff1667ffffffffffffffff16610af3565b61079b565b61079a6040518060400160405280602081526020017f257320686173207761766564206120746f74616c206f662025642074696d657381525033600260003373ffffffffffffffffffffffffffffffffffffffff1673ffffffffffffffffffffffffffffffffffffffff16815260200190815260200160002060009054906101000a900467ffffffffffffffff1667ffffffffffffffff16610af3565b5b3373ffffffffffffffffffffffffffffffffffffffff167f5f7e16dc676677766a70e9c5628aa6c54ddb8b6e5188e2ae1e1f17f1ffbea71642836040516107e39291906111d9565b60405180910390a250565b60008054906101000a900473ffffffffffffffffffffffffffffffffffffffff1681565b600061083b60405180606001604052806032815260200161151660329139600154600354610b92565b600154905090565b60026020528060005260406000206000915054906101000a900467ffffffffffffffff1681565b60606004805480602002602001604051908101604052809291908181526020016000905b828210156109b257838290600052602060002090600302016040518060600160405290816000820160009054906101000a900473ffffffffffffffffffffffffffffffffffffffff1673ffffffffffffffffffffffffffffffffffffffff1673ffffffffffffffffffffffffffffffffffffffff1681526020016001820180546109179061142e565b80601f01602080910402602001604051908101604052809291908181526020018280546109439061142e565b80156109905780601f1061096557610100808354040283529160200191610990565b820191906000526020600020905b81548152906001019060200180831161097357829003601f168201915b505050505081526020016002820154815250508152602001906001019061088e565b50505050905090565b610a51816040516024016109cf919061109b565b6040516020818303038152906040527f41304fac000000000000000000000000000000000000000000000000000000007bffffffffffffffffffffffffffffffffffffffffffffffffffffffff19166020820180517bffffffffffffffffffffffffffffffffffffffffffffffffffffffff8381831617835250505050610c31565b50565b610aee838383604051602401610a6c939291906110bd565b6040516020818303038152906040527fe0e9ad4f000000000000000000000000000000000000000000000000000000007bffffffffffffffffffffffffffffffffffffffffffffffffffffffff19166020820180517bffffffffffffffffffffffffffffffffffffffffffffffffffffffff8381831617835250505050610c31565b505050565b610b8d838383604051602401610b0b93929190611102565b6040516020818303038152906040527f07c81217000000000000000000000000000000000000000000000000000000007bffffffffffffffffffffffffffffffffffffffffffffffffffffffff19166020820180517bffffffffffffffffffffffffffffffffffffffffffffffffffffffff8381831617835250505050610c31565b505050565b610c2c838383604051602401610baa93929190611140565b6040516020818303038152906040527f969cdd03000000000000000000000000000000000000000000000000000000007bffffffffffffffffffffffffffffffffffffffffffffffffffffffff19166020820180517bffffffffffffffffffffffffffffffffffffffffffffffffffffffff8381831617835250505050610c31565b505050565b60008151905060006a636f6e736f6c652e6c6f679050602083016000808483855afa5050505050565b828054610c669061142e565b90600052602060002090601f016020900481019282610c885760008555610ccf565b82601f10610ca157805160ff1916838001178555610ccf565b82800160010185558215610ccf579182015b82811115610cce578251825591602001919060010190610cb3565b5b509050610cdc9190610ce0565b5090565b5b80821115610cf9576000816000905550600101610ce1565b5090565b6000610d10610d0b84611255565b611224565b905082815260208101848484011115610d2857600080fd5b610d338482856113ec565b509392505050565b600081359050610d4a816114fe565b92915050565b600082601f830112610d6157600080fd5b8135610d71848260208601610cfd565b91505092915050565b600060208284031215610d8c57600080fd5b6000610d9a84828501610d3b565b91505092915050565b600060208284031215610db557600080fd5b600082013567ffffffffffffffff811115610dcf57600080fd5b610ddb84828501610d50565b91505092915050565b6000610df08383610fcc565b905092915050565b610e018161139c565b82525050565b610e108161138a565b82525050565b610e1f8161138a565b82525050565b6000610e3082611295565b610e3a81856112b8565b935083602082028501610e4c85611285565b8060005b85811015610e885784840389528151610e698582610de4565b9450610e74836112ab565b925060208a01995050600181019050610e50565b50829750879550505050505092915050565b6000610ea5826112a0565b610eaf81856112d4565b9350610ebf8185602086016113fb565b610ec8816114ed565b840191505092915050565b6000610ede826112a0565b610ee881856112e5565b9350610ef88185602086016113fb565b610f01816114ed565b840191505092915050565b6000610f196014836112e5565b91507f4661696c656420746f2073656e642045746865720000000000000000000000006000830152602082019050919050565b6000610f596000836112c9565b9150600082019050919050565b6000610f736030836112e5565b91507f416d6f756e742073686f756c6420626520657175616c20746f206f722067726560008301527f61746572207468616e20312041564158000000000000000000000000000000006020830152604082019050919050565b6000606083016000830151610fe46000860182610e07565b5060208301518482036020860152610ffc8282610e9a565b9150506040830151611011604086018261101c565b508091505092915050565b611025816113ce565b82525050565b611034816113ce565b82525050565b611043816113d8565b82525050565b600061105482610f4c565b9150819050919050565b60006020820190506110736000830184610df8565b92915050565b600060208201905081810360008301526110938184610e25565b905092915050565b600060208201905081810360008301526110b58184610ed3565b905092915050565b600060608201905081810360008301526110d78186610ed3565b90506110e66020830185610e16565b81810360408301526110f88184610ed3565b9050949350505050565b6000606082019050818103600083015261111c8186610ed3565b905061112b6020830185610e16565b611138604083018461102b565b949350505050565b6000606082019050818103600083015261115a8186610ed3565b9050611169602083018561102b565b611176604083018461102b565b949350505050565b6000602082019050818103600083015261119781610f0c565b9050919050565b600060208201905081810360008301526111b781610f66565b9050919050565b60006020820190506111d3600083018461102b565b92915050565b60006040820190506111ee600083018561102b565b81810360208301526112008184610ed3565b90509392505050565b600060208201905061121e600083018461103a565b92915050565b6000604051905081810181811067ffffffffffffffff8211171561124b5761124a6114be565b5b8060405250919050565b600067ffffffffffffffff8211156112705761126f6114be565b5b601f19601f8301169050602081019050919050565b6000819050602082019050919050565b600081519050919050565b600081519050919050565b6000602082019050919050565b600082825260208201905092915050565b600081905092915050565b600082825260208201905092915050565b600082825260208201905092915050565b6000611301826113ce565b915061130c836113ce565b9250827fffffffffffffffffffffffffffffffffffffffffffffffffffffffffffffffff0382111561134157611340611460565b5b828201905092915050565b6000611357826113d8565b9150611362836113d8565b92508267ffffffffffffffff0382111561137f5761137e611460565b5b828201905092915050565b6000611395826113ae565b9050919050565b60006113a7826113ae565b9050919050565b600073ffffffffffffffffffffffffffffffffffffffff82169050919050565b6000819050919050565b600067ffffffffffffffff82169050919050565b82818337600083830152505050565b60005b838110156114195780820151818401526020810190506113fe565b83811115611428576000848401525b50505050565b6000600282049050600182168061144657607f821691505b6020821081141561145a5761145961148f565b5b50919050565b7f4e487b7100000000000000000000000000000000000000000000000000000000600052601160045260246000fd5b7f4e487b7100000000000000000000000000000000000000000000000000000000600052602260045260246000fd5b7f4e487b7100000000000000000000000000000000000000000000000000000000600052604160045260246000fd5b6000601f19601f8301169050919050565b6115078161138a565b811461151257600080fd5b5056fe5765206861766520256420746f74616c2077617665732066726f6d206f76657220256420756e697175652070656f706c6521a2646970667358221220851eae2bec6b3433bb26cf914efcd274b3f551716e2a72dedc62e18db53cb21464736f6c63430008000033",
  "linkReferences": {},
  "deployedLinkReferences": {}
}