{
  "_format": "hh-sol-artifact-1",
  "contractName": "WavePortal",
  "sourceName": "contracts/WavePortal.sol",
  "abi": [
    {
      "inputs": [],
      "stateMutability": "nonpayable",
      "type": "constructor"
    },
    {
      "anonymous": false,
      "inputs": [
        {
          "indexed": true,
          "internalType": "address",
          "name": "from",
          "type": "address"
        },
        {
          "indexed": false,
          "internalType": "uint256",
          "name": "timestamp",
          "type": "uint256"
        },
        {
          "indexed": false,
          "internalType": "string",
          "name": "message",
          "type": "string"
        }
      ],
      "name": "NewWave",
      "type": "event"
    },
    {
      "inputs": [],
      "name": "getAllWaves",
      "outputs": [
        {
          "components": [
            {
              "internalType": "address",
              "name": "waver",
              "type": "address"
            },
            {
              "internalType": "string",
              "name": "message",
              "type": "string"
            },
            {
              "internalType": "uint256",
              "name": "timestamp",
              "type": "uint256"
            }
          ],
          "internalType": "struct WavePortal.Wave[]",
          "name": "",
          "type": "tuple[]"
        }
      ],
      "stateMutability": "view",
      "type": "function"
    },
    {
      "inputs": [],
      "name": "getTotalWaves",
      "outputs": [
        {
          "internalType": "uint256",
          "name": "",
          "type": "uint256"
        }
      ],
      "stateMutability": "view",
      "type": "function"
    },
    {
      "inputs": [
        {
          "internalType": "string",
          "name": "_message",
          "type": "string"
        }
      ],
      "name": "wave",
      "outputs": [],
      "stateMutability": "nonpayable",
      "type": "function"
    },
    {
      "inputs": [
        {
          "internalType": "address",
          "name": "",
          "type": "address"
        }
      ],
      "name": "waveCount",
      "outputs": [
        {
          "internalType": "uint64",
          "name": "",
          "type": "uint64"
        }
      ],
      "stateMutability": "view",
      "type": "function"
    }
  ],
  "bytecode": "0x60806040523480156200001157600080fd5b506200005d6040518060400160405280600181526020017f0a00000000000000000000000000000000000000000000000000000000000000815250620000ae60201b620008011760201c565b620000a86040518060400160405280601581526020017f436f6e747261637420496e697469616c697a65642e0000000000000000000000815250620000ae60201b620008011760201c565b62000242565b6200014e81604051602401620000c59190620001bb565b6040516020818303038152906040527f41304fac000000000000000000000000000000000000000000000000000000007bffffffffffffffffffffffffffffffffffffffffffffffffffffffff19166020820180517bffffffffffffffffffffffffffffffffffffffffffffffffffffffff83818316178352505050506200015160201b60201c565b50565b60008151905060006a636f6e736f6c652e6c6f679050602083016000808483855afa5050505050565b60006200018782620001df565b620001938185620001ea565b9350620001a5818560208601620001fb565b620001b08162000231565b840191505092915050565b60006020820190508181036000830152620001d781846200017a565b905092915050565b600081519050919050565b600082825260208201905092915050565b60005b838110156200021b578082015181840152602081019050620001fe565b838111156200022b576000848401525b50505050565b6000601f19601f8301169050919050565b61126780620002526000396000f3fe608060405234801561001057600080fd5b506004361061004c5760003560e01c8063449d46c0146100515780639a2cdc081461006d578063ae020f4f1461008b578063bd43a908146100bb575b600080fd5b61006b60048036038101906100669190610be9565b6100d9565b005b610075610658565b6040516100829190610ec5565b60405180910390f35b6100a560048036038101906100a09190610bc0565b610689565b6040516100b29190610f10565b60405180910390f35b6100c36106b0565b6040516100d09190610dc0565b60405180910390f35b60016000808282546100eb9190610ff2565b925050819055506000600160003373ffffffffffffffffffffffffffffffffffffffff1673ffffffffffffffffffffffffffffffffffffffff16815260200190815260200160002060009054906101000a900467ffffffffffffffff1667ffffffffffffffff1614156102cb5760016002600082825461016b9190610ff2565b9250508190555060018060003373ffffffffffffffffffffffffffffffffffffffff1673ffffffffffffffffffffffffffffffffffffffff16815260200190815260200160002060008282829054906101000a900467ffffffffffffffff166101d49190611048565b92506101000a81548167ffffffffffffffff021916908367ffffffffffffffff160217905550600360405180606001604052803373ffffffffffffffffffffffffffffffffffffffff16815260200183815260200142815250908060018154018082558091505060019003906000526020600020906003020160009091909190915060008201518160000160006101000a81548173ffffffffffffffffffffffffffffffffffffffff021916908373ffffffffffffffffffffffffffffffffffffffff16021790555060208201518160010190805190602001906102b9929190610aa0565b50604082015181600201555050610420565b60018060003373ffffffffffffffffffffffffffffffffffffffff1673ffffffffffffffffffffffffffffffffffffffff16815260200190815260200160002060008282829054906101000a900467ffffffffffffffff1661032d9190611048565b92506101000a81548167ffffffffffffffff021916908367ffffffffffffffff160217905550600360405180606001604052803373ffffffffffffffffffffffffffffffffffffffff16815260200183815260200142815250908060018154018082558091505060019003906000526020600020906003020160009091909190915060008201518160000160006101000a81548173ffffffffffffffffffffffffffffffffffffffff021916908373ffffffffffffffffffffffffffffffffffffffff1602179055506020820151816001019080519060200190610412929190610aa0565b506040820151816002015550505b6104606040518060400160405280601181526020017f2573206a75737420776176656421202573000000000000000000000000000000815250338361089a565b60018060003373ffffffffffffffffffffffffffffffffffffffff1673ffffffffffffffffffffffffffffffffffffffff16815260200190815260200160002060009054906101000a900467ffffffffffffffff1667ffffffffffffffff161415610567576105626040518060400160405280601f81526020017f257320686173207761766564206120746f74616c206f662025642074696d650081525033600160003373ffffffffffffffffffffffffffffffffffffffff1673ffffffffffffffffffffffffffffffffffffffff16815260200190815260200160002060009054906101000a900467ffffffffffffffff1667ffffffffffffffff16610939565b610605565b6106046040518060400160405280602081526020017f257320686173207761766564206120746f74616c206f662025642074696d657381525033600160003373ffffffffffffffffffffffffffffffffffffffff1673ffffffffffffffffffffffffffffffffffffffff16815260200190815260200160002060009054906101000a900467ffffffffffffffff1667ffffffffffffffff16610939565b5b3373ffffffffffffffffffffffffffffffffffffffff167f5f7e16dc676677766a70e9c5628aa6c54ddb8b6e5188e2ae1e1f17f1ffbea716428360405161064d929190610ee0565b60405180910390a250565b6000610681604051806060016040528060328152602001611200603291396000546002546109d8565b600054905090565b60016020528060005260406000206000915054906101000a900467ffffffffffffffff1681565b60606003805480602002602001604051908101604052809291908181526020016000905b828210156107f857838290600052602060002090600302016040518060600160405290816000820160009054906101000a900473ffffffffffffffffffffffffffffffffffffffff1673ffffffffffffffffffffffffffffffffffffffff1673ffffffffffffffffffffffffffffffffffffffff16815260200160018201805461075d90611118565b80601f016020809104026020016040519081016040528092919081815260200182805461078990611118565b80156107d65780601f106107ab576101008083540402835291602001916107d6565b820191906000526020600020905b8154815290600101906020018083116107b957829003601f168201915b50505050508152602001600282015481525050815260200190600101906106d4565b50505050905090565b610897816040516024016108159190610de2565b6040516020818303038152906040527f41304fac000000000000000000000000000000000000000000000000000000007bffffffffffffffffffffffffffffffffffffffffffffffffffffffff19166020820180517bffffffffffffffffffffffffffffffffffffffffffffffffffffffff8381831617835250505050610a77565b50565b6109348383836040516024016108b293929190610e04565b6040516020818303038152906040527fe0e9ad4f000000000000000000000000000000000000000000000000000000007bffffffffffffffffffffffffffffffffffffffffffffffffffffffff19166020820180517bffffffffffffffffffffffffffffffffffffffffffffffffffffffff8381831617835250505050610a77565b505050565b6109d383838360405160240161095193929190610e49565b6040516020818303038152906040527f07c81217000000000000000000000000000000000000000000000000000000007bffffffffffffffffffffffffffffffffffffffffffffffffffffffff19166020820180517bffffffffffffffffffffffffffffffffffffffffffffffffffffffff8381831617835250505050610a77565b505050565b610a728383836040516024016109f093929190610e87565b6040516020818303038152906040527f969cdd03000000000000000000000000000000000000000000000000000000007bffffffffffffffffffffffffffffffffffffffffffffffffffffffff19166020820180517bffffffffffffffffffffffffffffffffffffffffffffffffffffffff8381831617835250505050610a77565b505050565b60008151905060006a636f6e736f6c652e6c6f679050602083016000808483855afa5050505050565b828054610aac90611118565b90600052602060002090601f016020900481019282610ace5760008555610b15565b82601f10610ae757805160ff1916838001178555610b15565b82800160010185558215610b15579182015b82811115610b14578251825591602001919060010190610af9565b5b509050610b229190610b26565b5090565b5b80821115610b3f576000816000905550600101610b27565b5090565b6000610b56610b5184610f5c565b610f2b565b905082815260208101848484011115610b6e57600080fd5b610b798482856110d6565b509392505050565b600081359050610b90816111e8565b92915050565b600082601f830112610ba757600080fd5b8135610bb7848260208601610b43565b91505092915050565b600060208284031215610bd257600080fd5b6000610be084828501610b81565b91505092915050565b600060208284031215610bfb57600080fd5b600082013567ffffffffffffffff811115610c1557600080fd5b610c2184828501610b96565b91505092915050565b6000610c368383610d43565b905092915050565b610c4781611086565b82525050565b610c5681611086565b82525050565b6000610c6782610f9c565b610c718185610fbf565b935083602082028501610c8385610f8c565b8060005b85811015610cbf5784840389528151610ca08582610c2a565b9450610cab83610fb2565b925060208a01995050600181019050610c87565b50829750879550505050505092915050565b6000610cdc82610fa7565b610ce68185610fd0565b9350610cf68185602086016110e5565b610cff816111d7565b840191505092915050565b6000610d1582610fa7565b610d1f8185610fe1565b9350610d2f8185602086016110e5565b610d38816111d7565b840191505092915050565b6000606083016000830151610d5b6000860182610c3e565b5060208301518482036020860152610d738282610cd1565b9150506040830151610d886040860182610d93565b508091505092915050565b610d9c816110b8565b82525050565b610dab816110b8565b82525050565b610dba816110c2565b82525050565b60006020820190508181036000830152610dda8184610c5c565b905092915050565b60006020820190508181036000830152610dfc8184610d0a565b905092915050565b60006060820190508181036000830152610e1e8186610d0a565b9050610e2d6020830185610c4d565b8181036040830152610e3f8184610d0a565b9050949350505050565b60006060820190508181036000830152610e638186610d0a565b9050610e726020830185610c4d565b610e7f6040830184610da2565b949350505050565b60006060820190508181036000830152610ea18186610d0a565b9050610eb06020830185610da2565b610ebd6040830184610da2565b949350505050565b6000602082019050610eda6000830184610da2565b92915050565b6000604082019050610ef56000830185610da2565b8181036020830152610f078184610d0a565b90509392505050565b6000602082019050610f256000830184610db1565b92915050565b6000604051905081810181811067ffffffffffffffff82111715610f5257610f516111a8565b5b8060405250919050565b600067ffffffffffffffff821115610f7757610f766111a8565b5b601f19601f8301169050602081019050919050565b6000819050602082019050919050565b600081519050919050565b600081519050919050565b6000602082019050919050565b600082825260208201905092915050565b600082825260208201905092915050565b600082825260208201905092915050565b6000610ffd826110b8565b9150611008836110b8565b9250827fffffffffffffffffffffffffffffffffffffffffffffffffffffffffffffffff0382111561103d5761103c61114a565b5b828201905092915050565b6000611053826110c2565b915061105e836110c2565b92508267ffffffffffffffff0382111561107b5761107a61114a565b5b828201905092915050565b600061109182611098565b9050919050565b600073ffffffffffffffffffffffffffffffffffffffff82169050919050565b6000819050919050565b600067ffffffffffffffff82169050919050565b82818337600083830152505050565b60005b838110156111035780820151818401526020810190506110e8565b83811115611112576000848401525b50505050565b6000600282049050600182168061113057607f821691505b6020821081141561114457611143611179565b5b50919050565b7f4e487b7100000000000000000000000000000000000000000000000000000000600052601160045260246000fd5b7f4e487b7100000000000000000000000000000000000000000000000000000000600052602260045260246000fd5b7f4e487b7100000000000000000000000000000000000000000000000000000000600052604160045260246000fd5b6000601f19601f8301169050919050565b6111f181611086565b81146111fc57600080fd5b5056fe5765206861766520256420746f74616c2077617665732066726f6d206f76657220256420756e697175652070656f706c6521a2646970667358221220e8f078037390901d0840de66d49b1184de300a0aadf6891cafea913a61ab4bac64736f6c63430008000033",
  "linkReferences": {},
  "deployedLinkReferences": {}
}